{
  "contractName": "pSDA",
  "abi": [
    {
      "anonymous": false,
      "inputs": [
        {
          "indexed": true,
          "internalType": "address",
          "name": "_owner",
          "type": "address"
        },
        {
          "indexed": true,
          "internalType": "address",
          "name": "_spender",
          "type": "address"
        },
        {
          "indexed": false,
          "internalType": "uint256",
          "name": "_value",
          "type": "uint256"
        }
      ],
      "name": "Approval",
      "type": "event"
    },
    {
      "anonymous": false,
      "inputs": [
        {
          "indexed": true,
          "internalType": "address",
          "name": "_from",
          "type": "address"
        },
        {
          "indexed": true,
          "internalType": "address",
          "name": "_to",
          "type": "address"
        },
        {
          "indexed": false,
          "internalType": "uint256",
          "name": "_value",
          "type": "uint256"
        }
      ],
      "name": "Transfer",
      "type": "event"
    },
    {
      "inputs": [
        {
          "internalType": "address",
          "name": "",
          "type": "address"
        },
        {
          "internalType": "address",
          "name": "",
          "type": "address"
        }
      ],
      "name": "allowance",
      "outputs": [
        {
          "internalType": "uint256",
          "name": "",
          "type": "uint256"
        }
      ],
      "stateMutability": "view",
      "type": "function"
    },
    {
      "inputs": [
        {
          "internalType": "address",
          "name": "",
          "type": "address"
        }
      ],
      "name": "balanceOf",
      "outputs": [
        {
          "internalType": "uint256",
          "name": "",
          "type": "uint256"
        }
      ],
      "stateMutability": "view",
      "type": "function"
    },
    {
      "inputs": [],
      "name": "name",
      "outputs": [
        {
          "internalType": "string",
          "name": "",
          "type": "string"
        }
      ],
      "stateMutability": "view",
      "type": "function"
    },
    {
      "inputs": [],
      "name": "standard",
      "outputs": [
        {
          "internalType": "string",
          "name": "",
          "type": "string"
        }
      ],
      "stateMutability": "view",
      "type": "function"
    },
    {
      "inputs": [],
      "name": "symbol",
      "outputs": [
        {
          "internalType": "string",
          "name": "",
          "type": "string"
        }
      ],
      "stateMutability": "view",
      "type": "function"
    },
    {
      "inputs": [],
      "name": "totalSupply",
      "outputs": [
        {
          "internalType": "uint256",
          "name": "",
          "type": "uint256"
        }
      ],
      "stateMutability": "view",
      "type": "function"
    },
    {
      "inputs": [
        {
          "internalType": "uint256",
          "name": "_initialSupply",
          "type": "uint256"
        }
      ],
      "name": "pSDAToken",
      "outputs": [],
      "stateMutability": "nonpayable",
      "type": "function"
    },
    {
      "inputs": [
        {
          "internalType": "address",
          "name": "_to",
          "type": "address"
        },
        {
          "internalType": "uint256",
          "name": "_value",
          "type": "uint256"
        }
      ],
      "name": "transfer",
      "outputs": [
        {
          "internalType": "bool",
          "name": "success",
          "type": "bool"
        }
      ],
      "stateMutability": "nonpayable",
      "type": "function"
    },
    {
      "inputs": [
        {
          "internalType": "address",
          "name": "_spender",
          "type": "address"
        },
        {
          "internalType": "uint256",
          "name": "_value",
          "type": "uint256"
        }
      ],
      "name": "approve",
      "outputs": [
        {
          "internalType": "bool",
          "name": "success",
          "type": "bool"
        }
      ],
      "stateMutability": "nonpayable",
      "type": "function"
    },
    {
      "inputs": [
        {
          "internalType": "address",
          "name": "_from",
          "type": "address"
        },
        {
          "internalType": "address",
          "name": "_to",
          "type": "address"
        },
        {
          "internalType": "uint256",
          "name": "_value",
          "type": "uint256"
        }
      ],
      "name": "transferFrom",
      "outputs": [
        {
          "internalType": "bool",
          "name": "success",
          "type": "bool"
        }
      ],
      "stateMutability": "nonpayable",
      "type": "function"
    }
  ],
  "bytecode": "0x60806040526040518060400160405280600a81526020017f7053444120546f6b656e00000000000000000000000000000000000000000000815250600090805190602001906200005192919062000102565b506040518060400160405280600481526020017f7053444100000000000000000000000000000000000000000000000000000000815250600190805190602001906200009f92919062000102565b506040518060400160405280600f81526020017f7053444120546f6b656e2076312e30000000000000000000000000000000000081525060029080519060200190620000ed92919062000102565b50348015620000fb57600080fd5b5062000217565b8280546200011090620001e1565b90600052602060002090601f01602090048101928262000134576000855562000180565b82601f106200014f57805160ff191683800117855562000180565b8280016001018555821562000180579182015b828111156200017f57825182559160200191906001019062000162565b5b5090506200018f919062000193565b5090565b5b80821115620001ae57600081600090555060010162000194565b5090565b7f4e487b7100000000000000000000000000000000000000000000000000000000600052602260045260246000fd5b60006002820490506001821680620001fa57607f821691505b60208210811415620002115762000210620001b2565b5b50919050565b610d7480620002276000396000f3fe608060405234801561001057600080fd5b506004361061009e5760003560e01c806370a082311161006657806370a082311461015d57806395d89b411461018d57806399813b1f146101ab578063a9059cbb146101c7578063dd62ed3e146101f75761009e565b806306fdde03146100a3578063095ea7b3146100c157806318160ddd146100f157806323b872dd1461010f5780635a3b7e421461013f575b600080fd5b6100ab610227565b6040516100b891906109dc565b60405180910390f35b6100db60048036038101906100d69190610a97565b6102b5565b6040516100e89190610af2565b60405180910390f35b6100f96103a7565b6040516101069190610b1c565b60405180910390f35b61012960048036038101906101249190610b37565b6103ad565b6040516101369190610af2565b60405180910390f35b610147610633565b60405161015491906109dc565b60405180910390f35b61017760048036038101906101729190610b8a565b6106c1565b6040516101849190610b1c565b60405180910390f35b6101956106d9565b6040516101a291906109dc565b60405180910390f35b6101c560048036038101906101c09190610bb7565b610767565b005b6101e160048036038101906101dc9190610a97565b6107b5565b6040516101ee9190610af2565b60405180910390f35b610211600480360381019061020c9190610be4565b61091e565b60405161021e9190610b1c565b60405180910390f35b6000805461023490610c53565b80601f016020809104026020016040519081016040528092919081815260200182805461026090610c53565b80156102ad5780601f10610282576101008083540402835291602001916102ad565b820191906000526020600020905b81548152906001019060200180831161029057829003601f168201915b505050505081565b600081600560003373ffffffffffffffffffffffffffffffffffffffff1673ffffffffffffffffffffffffffffffffffffffff16815260200190815260200160002060008573ffffffffffffffffffffffffffffffffffffffff1673ffffffffffffffffffffffffffffffffffffffff168152602001908152602001600020819055508273ffffffffffffffffffffffffffffffffffffffff163373ffffffffffffffffffffffffffffffffffffffff167f8c5be1e5ebec7d5bd14f71427d1e84f3dd0314c0f7b2291e5b200ac8c7c3b925846040516103959190610b1c565b60405180910390a36001905092915050565b60035481565b6000600460008573ffffffffffffffffffffffffffffffffffffffff1673ffffffffffffffffffffffffffffffffffffffff168152602001908152602001600020548211156103fb57600080fd5b600560008573ffffffffffffffffffffffffffffffffffffffff1673ffffffffffffffffffffffffffffffffffffffff16815260200190815260200160002060003373ffffffffffffffffffffffffffffffffffffffff1673ffffffffffffffffffffffffffffffffffffffff1681526020019081526020016000205482111561048457600080fd5b81600460008673ffffffffffffffffffffffffffffffffffffffff1673ffffffffffffffffffffffffffffffffffffffff16815260200190815260200160002060008282546104d39190610cb4565b9250508190555081600460008573ffffffffffffffffffffffffffffffffffffffff1673ffffffffffffffffffffffffffffffffffffffff16815260200190815260200160002060008282546105299190610ce8565b9250508190555081600560008673ffffffffffffffffffffffffffffffffffffffff1673ffffffffffffffffffffffffffffffffffffffff16815260200190815260200160002060003373ffffffffffffffffffffffffffffffffffffffff1673ffffffffffffffffffffffffffffffffffffffff16815260200190815260200160002060008282546105bc9190610cb4565b925050819055508273ffffffffffffffffffffffffffffffffffffffff168473ffffffffffffffffffffffffffffffffffffffff167fddf252ad1be2c89b69c2b068fc378daa952ba7f163c4a11628f55a4df523b3ef846040516106209190610b1c565b60405180910390a3600190509392505050565b6002805461064090610c53565b80601f016020809104026020016040519081016040528092919081815260200182805461066c90610c53565b80156106b95780601f1061068e576101008083540402835291602001916106b9565b820191906000526020600020905b81548152906001019060200180831161069c57829003601f168201915b505050505081565b60046020528060005260406000206000915090505481565b600180546106e690610c53565b80601f016020809104026020016040519081016040528092919081815260200182805461071290610c53565b801561075f5780601f106107345761010080835404028352916020019161075f565b820191906000526020600020905b81548152906001019060200180831161074257829003601f168201915b505050505081565b80600460003373ffffffffffffffffffffffffffffffffffffffff1673ffffffffffffffffffffffffffffffffffffffff168152602001908152602001600020819055508060038190555050565b600081600460003373ffffffffffffffffffffffffffffffffffffffff1673ffffffffffffffffffffffffffffffffffffffff16815260200190815260200160002054101561080357600080fd5b81600460003373ffffffffffffffffffffffffffffffffffffffff1673ffffffffffffffffffffffffffffffffffffffff16815260200190815260200160002060008282546108529190610cb4565b9250508190555081600460008573ffffffffffffffffffffffffffffffffffffffff1673ffffffffffffffffffffffffffffffffffffffff16815260200190815260200160002060008282546108a89190610ce8565b925050819055508273ffffffffffffffffffffffffffffffffffffffff163373ffffffffffffffffffffffffffffffffffffffff167fddf252ad1be2c89b69c2b068fc378daa952ba7f163c4a11628f55a4df523b3ef8460405161090c9190610b1c565b60405180910390a36001905092915050565b6005602052816000526040600020602052806000526040600020600091509150505481565b600081519050919050565b600082825260208201905092915050565b60005b8381101561097d578082015181840152602081019050610962565b8381111561098c576000848401525b50505050565b6000601f19601f8301169050919050565b60006109ae82610943565b6109b8818561094e565b93506109c881856020860161095f565b6109d181610992565b840191505092915050565b600060208201905081810360008301526109f681846109a3565b905092915050565b600080fd5b600073ffffffffffffffffffffffffffffffffffffffff82169050919050565b6000610a2e82610a03565b9050919050565b610a3e81610a23565b8114610a4957600080fd5b50565b600081359050610a5b81610a35565b92915050565b6000819050919050565b610a7481610a61565b8114610a7f57600080fd5b50565b600081359050610a9181610a6b565b92915050565b60008060408385031215610aae57610aad6109fe565b5b6000610abc85828601610a4c565b9250506020610acd85828601610a82565b9150509250929050565b60008115159050919050565b610aec81610ad7565b82525050565b6000602082019050610b076000830184610ae3565b92915050565b610b1681610a61565b82525050565b6000602082019050610b316000830184610b0d565b92915050565b600080600060608486031215610b5057610b4f6109fe565b5b6000610b5e86828701610a4c565b9350506020610b6f86828701610a4c565b9250506040610b8086828701610a82565b9150509250925092565b600060208284031215610ba057610b9f6109fe565b5b6000610bae84828501610a4c565b91505092915050565b600060208284031215610bcd57610bcc6109fe565b5b6000610bdb84828501610a82565b91505092915050565b60008060408385031215610bfb57610bfa6109fe565b5b6000610c0985828601610a4c565b9250506020610c1a85828601610a4c565b9150509250929050565b7f4e487b7100000000000000000000000000000000000000000000000000000000600052602260045260246000fd5b60006002820490506001821680610c6b57607f821691505b60208210811415610c7f57610c7e610c24565b5b50919050565b7f4e487b7100000000000000000000000000000000000000000000000000000000600052601160045260246000fd5b6000610cbf82610a61565b9150610cca83610a61565b925082821015610cdd57610cdc610c85565b5b828203905092915050565b6000610cf382610a61565b9150610cfe83610a61565b9250827fffffffffffffffffffffffffffffffffffffffffffffffffffffffffffffffff03821115610d3357610d32610c85565b5b82820190509291505056fea2646970667358221220f1ff7551bd17e203af1f8a9a4d1edc1fc82ba14a7aeb0e2370722874c8afdb5f64736f6c634300080c0033",
  "immutableReferences": {},
  "source": "// SPDX-License-Identifier: MIT\n\npragma solidity ^0.8.12;\n\ncontract pSDA {\n    string public name = \"pSDA Token\";\n    string public symbol = \"pSDA\";\n    string public standard = \"pSDA Token v1.0\";\n    uint256 public totalSupply;\n\n    event Transfer(address indexed _from, address indexed _to, uint256 _value);\n\n    event Approval(\n        address indexed _owner,\n        address indexed _spender,\n        uint256 _value\n    );\n\n    mapping(address => uint256) public balanceOf;\n    mapping(address => mapping(address => uint256)) public allowance;\n\n    function pSDAToken(uint256 _initialSupply) public {\n        balanceOf[msg.sender] = _initialSupply;\n        totalSupply = _initialSupply;\n    }\n\n    function transfer(address _to, uint256 _value)\n        public\n        returns (bool success)\n    {\n        require(balanceOf[msg.sender] >= _value);\n\n        balanceOf[msg.sender] -= _value;\n        balanceOf[_to] += _value;\n\n        emit Transfer(msg.sender, _to, _value);\n\n        return true;\n    }\n\n    function approve(address _spender, uint256 _value)\n        public\n        returns (bool success)\n    {\n        allowance[msg.sender][_spender] = _value;\n\n        emit Approval(msg.sender, _spender, _value);\n\n        return true;\n    }\n\n    function transferFrom(\n        address _from,\n        address _to,\n        uint256 _value\n    ) public returns (bool success) {\n        require(_value <= balanceOf[_from]);\n        require(_value <= allowance[_from][msg.sender]);\n\n        balanceOf[_from] -= _value;\n        balanceOf[_to] += _value;\n\n        allowance[_from][msg.sender] -= _value;\n\n        emit Transfer(_from, _to, _value);\n\n        return true;\n    }\n}\n",
  "sourcePath": "C:\\Users\\bsalm\\project_token\\contracts\\pSDAToken.sol",
  "compiler": {
    "name": "solc",
    "version": "0.8.12+commit.f00d7308.Emscripten.clang"
  },
  "schemaVersion": "3.4.4",
  "updatedAt": "2022-02-22T19:23:43.863Z",
  "devdoc": {
    "kind": "dev",
    "methods": {},
    "version": 1
  },
  "userdoc": {
    "kind": "user",
    "methods": {},
    "version": 1
  }
}